:1012CA00000000000000000000003FFC0041080090
:1012DA00883000806001804002C0C004C100043F21
:1012EA0000020C0000CC00000C00000C00000C8076
:1012FA00006D60005EC0003F80000C00000C000022
:08130A000C0007FFF80FFFFCC7
:1012210012000EE4F549F54A1200261210CA120600
:10123100B7E54A640245497018F54BF54CF54DF593
:101241004E1210CAE4F549F54A121148120ABC803F
:10125100E0E54A64014549700D1210CAE4F549F50B
:101261004A120E6B80CBE54A640F454970C31210D8
:0B127100CAE4F549F54A120F1080B6E0
:0F146D00C2B7D2B6C2A2D2A0E58054C070F2229C
:1013F800C2A0C2A2C2A1E4FF121483E4FF121483A4
:081408007F211214A6D2A222DA
:07147C007C017D00120A75DE
:0814830012144CD2A1D2A222E6
:0800030012144CD2A1D2A2227A
:1013B300E4FF121483E4FF1214837F401214A67F08
:1013C3001E121483E4FF1214837F411214A67F8438
:0813D3001214A67F940214A677
:0A14A600D2A012144ED2A1D2A2224D
:0611C5008A568B57A905B4
:1011CB00EF3395E0FE7C007D1E120A0EAD01ED3370
:1011DB0095E0FCEF2DF55BEE3CF55AAF5B121483FB
:1011EB00AE5AAF5B12147C7F241214A6E4F558F5AB
:1011FB0059C3E5599557E5566480F8E558648098CE
:10120B00500F7FFF1214830559E55970E405588080
:06121B00E07FB20214A600
:10138700C2A3C2A4E4FF121483E4FF1214837F42B2
:101397001214A67F1E121483E4FF1214837F4312D4
:0C13A70014A67F801214A67F9A0214A6E0
:061047008B3E8A3F894048
:10104D00754508754600AF46121483E545FF121429
:10105D00837F241214A6E4F541F542AE41AF427CE4
:10106D00007D1E120A20ED4C702B0544E5447002E4
:10107D000543AE43FF7C007D1E120A0EE42FF5469C
:10108D00EE3408F545AF46121483E545FF1214837F
:10109D007F241214A6AB3EAA3FA94085428285410A
:1010AD00831209E1FF1214837FC01214A60542E5D5
:0C10BD004270020541C3E541940F409FC2
:0110C9002204
:041312008B5CAA0541
:10131600EF3395E0FE7C007D1E120A0EAD02ED3322
:1013260095E0FCEF2DF55EEE3CF55DAF5E121483A5
:10133600AE5DAF5E12147C7F241214A67FB0121429
:0B134600A6AF5C1200037FB20214A6E9
:10143B008F617FB01214A6AF611200037FB202144A
:01144B00A6FA
:101428008E5F8F60121483AE5FAF6012147C7F24CE
:031438000214A6F5
:061351008B4F8A50895108
:10135700E4F552F553AB4FAA50A9518553828552F4
:10136700831209E1FF60183395E0FE1214B08E5422
:0F1377008F5512143B0553E55370DA055280D69B
:011386002244
:0A144C00C2A0C2A2C2A18F807F01DE
:07145600EF60031F80FA2282
:0814B000EF24E0FFEE34FFFE23
:0114B8002211
:0F148B007FA01214A67F931214A67F940214A6BA
:0A0DB9008F0B8D0C8B0D8A0E890F35
:100DC3007512008F13751400850C15E4F516F517CD
:100DD300F518F519EF75F01EA4AEF07C002DF51192
:100DE300EC3EF510E4F516F517E4F518F519E50BE7
:100DF30075F01EA4AEF07C00250CF511EC3EF51049
:100E0300050CFEAF110C7D00120A75AF0512148399
:100E1300AE10AF1112147C7F241214A67FB01214EB
:100E2300A6E5172519FFE5163518AB0DAA0EA90F70
:100E33008F82F5831209E1FF1214837FB21214A685
:100E43000519E51970020518C39401E518940040CB
:100E53009D050B85150C0517E51770020516C39440
:070E630010E5169400408227
:010E6A002265
:0A0CFD008F208D218B228A23892489
:100D07007527008F2875290085212AE4F52BF52CF6
:100D1700F52DF52EEF75F01EA4AEF07C002DF5260F
:100D2700EC3EF525E4F52BF52CE4F52DF52EE52025
:100D370075F01EA4AEF07C002521F526EC3EF525C6
:100D47000521FEAF260C7D00120A75AF051214832C
:100D5700AE25AF2612147C7F241214A67FB012147E
:100D6700A6E52C25E0FFE52B33FEE52E2FFFE52D2D
:100D77003EAB22AA23A9248F82F5831209E1FF1231
:100D870014837FB21214A6052EE52E7002052DC31B
:100D97009402E52D940040960520852A21052CE52F
:100DA7002C7002052BC39410E52B94005003020D01
:010DB700300B
:010DB8002218
:0A0B7F008F0B8D0C8B0D8A0E890F71
:100B89007512008F13751400850C15E4F516F51709
:100B9900F518F519EF75F01EA4AEF07C002DF511CE
:100BA900EC3EF510E4F516F517E4F518F519E50B23
:100BB90075F01EA4AEF07C00250CF511EC3EF51085
:100BC900050CFEAF110C7D00120A75AF05121483D6
:100BD900AE10AF1112147C7F241214A67FB0121428
:100BE900A6AB0DAA0EA90F85178285168374031269
:100BF9000AABE5822519F582E5833518F5831209D3
:100C0900E1FF1214837FB21214A60519E5197002C7
:100C19000518C39403E51894004093050B85150C3A
:100C29000517E51770020516C39414E516940050CC
:040C390003020BB2F5
:010C3D002294
:0A0C3E008F2F8D308B318A328933FD
:100C48007536008F37753800853039E4F53AF53B4D
:100C5800F53CF53DEF75F01EA4AEF07C002DF535A2
:100C6800EC3EF534E4F53AF53BE4F53CF53DE52F8B
:100C780075F01EA4AEF07C002530F535EC3EF53459
:100C88000530FEAF350C7D00120A75AF05121483CE
:100C9800AE34AF3512147C7F241214A67FB0121420
:100CA800A6AB31AA32A933853B82853A83740312F5
:100CB8000AABE582253DF582E583353CF5831209CB
:100CC800E1FF1214837FB21214A6053DE53D7002C0
:100CD800053CC39403E53C94004093052F853930C7
:100CE800053BE53B7002053AC39418E53A94005079
:040CF80003020C7176
:010CFC0022D5
:1010CA00E4F508F509F50AF50BAE08AF09FC7D1E33
:1010DA00120A0EE50B2FF50DE50A3EF50CE4F508AC
:1010EA00F509E4F50AF50BAE08AF097C007D1E127E
:1010FA000A0EE50B2FF50DE50A3EF50CAF0D12149D
:10110A0083E50CFF1214837F241214A67FB01214F5
:10111A00A6E4FF1214837FB21214A6050BE50B7026
:10112A0002050AC3941EE50A940040BB0509E509B5
:0D113A0070020508C39480E508940040A5EC
:011147002285
:060FB5008F208D218B222C
:100FBB00E4F523F524F525F526EF75F01EA4AEF028
:100FCB007C002DF528EC3EF527E4F523F524E4F51C
:100FDB0025F526C3E5269522E5259400504C7E0089
:100FEB00E5242520FFEE3523FE7C007D1E120A0E24
:100FFB00E5262FFFE5253EFEEF2521F528EC3EF5F6
:10100B0027AF28121483E527FF1214837F241214B1
:10101B00A67FB01214A6E4FF1214837FB21214A69B
:10102B000526E52670AD052580A90524E52470026B
:0B103B000523C39410E52394004093AC
:011046002287
:1004330000000000C00000E00000E00000E0000059
:10044300E00000E00000FF801FFE000EC00000E09F
:100453000000E00001F00001B800039C00070F005A
:100463000E0FC01807E000000000000000000000AD
:100473000F001DCE001CEF801CFFC01FFC001C7C66
:10048300003F70007C7C001C6E001FC7801FFFC0F4
:100493003FF1F0F70E002DFF0000C70000C600007B
:1004A300FE0000C000000000000000000000021C6D
:1004B300000F8E003F06003E01C03E1FE03FFE00DE
:1004C3003E9C003F3E003E378038738038E3003166
:1004D300C700338700373E00301C00001C000000BB
:1004E30000000000000000FC424242427C404040C9
:1004F30040E00000000000107010101010101010E9
:10050300107C0000000000000000003C42427E40DE
:10051300423C00000000000000000038440C34445A
:100523004C360000000000000000003E42403C0248
:10053300427C0000000000000000000000000000FA
:100543000000000000000000000000C642424242DA
:10055300463B000000000030300000701010101007
:10056300107C000000000000000000DC62424242F8
:1005730042E70000000000000000003E4444384011
:100583003C42423C00000000C040405C62424242A8
:1005930042E70000000000000000003C42424242EB
:1005A300423C0000000000000010107C10101010EE
:1005B300120C000000000000000000EE322020209A
:1005C30020F8000000000000000000FE49494949EE
:1005D30049ED0000000000000000001C22404040E4
:1005E300221C00000000003E424280808080804246
:1005F30044380000000000000000003C4242424238
:10060300423C000000000000000000EE44442828A3
:100613001010000000000000000000D864424242B5
:10062300645840E0000000000602023E424242429B
:10063300463B000000000000000000DB894A5A54DA
:1006430024240000000000000C12107C1010101075
:10065300107C0000000000000000000000000030DB
:100663003010200000000000000000000000000027
:100673000000FFFF000000000100028002920294CC
:10068300039851E82FD03B603B20070003003FFC59
:100693007FFEFFFF0000010032802A402A401952EA
:1006A3001BF01012114C04181288109008400438E3
:0406B30003640328B1
:10002600E4F508F509F50A1213877BFF7A0479339C
:100036007D097F1C120B7F7BFF7A0479337D0C7F51
:100046001C120B7F7BFF7A04796F7D0F7F1C120BCE
:100056007F7BFF7A0479AB7D127F1C120B7F7BFFBF
:100066007A0479E7E4FD7F31120DB97BFF7A0479D2
:10007600F77D017F31120DB97BFF7A0579077D0285
:100086007F31120DB97BFF7A0579177D037F311217
:100096000DB97BFF7A0579277D047F31120DB97B77
:1000A600FF7A0579077D057F31120DB97BFF7A0549
:1000B60079377D067F31120DB97BFF7A0579477D49
:1000C600077F31120DB97BFF7A0579277D087F31CD
:1000D600120DB97BFF7A0579577D097F31120DB96B
:1000E6007BFF7A0579677D0A7F31120DB97BFF7A2E
:1000F6000579777D0B7F31120DB97BFF7A0579374C
:100106007D0C7F31120DB97BFF7A0579877D0D7FD6
:1001160031120DB97BFF7A0579177D0E7F31120DED
:10012600B97BFF7A0579977D0F7F31120DB97BFF79
:100136007A0579377D107F31120DB97BFF7A057903
:10014600A77D117F31120DB97BFF7A0579977D1254
:100156007F31120DB97BFF7A0579377D137F311216
:100166000DB97BFF7A0579277D147F31120DB97B96
:10017600FF7A0579A77D157F31120DB97BFF7A05C8
:1001860079177D167F31120DB97BFF7A0579B77D18
:10019600177F31120DB97BFF7A0579A77D187F315C
:1001A600120DB97BFF7A0679577D197F31120DB989
:1001B6007BFF7A0579277D1A7F31120DB97BFF7A8D
:1001C6000579A77D1B7F31120DB97BFF7A057997DB
:1001D6007D1C7F31120DB97BFF7A0679177D1D7F55
:1001E60031120DB97BFF7A0579A7E4FD7F41120D27
:1001F600B97BFF7A0579977D017F41120DB97BFFA7
:100206007A0579377D027F41120DB97BFF7A057930
:10021600277D037F41120DB97BFF7A0579A77D04FF
:100226007F41120DB97BFF7A0579977D057F4112D3
:100236000DB97BFF7A0679177D067F41120DB97BD2
:10024600FF7A0679577D077F41120DB97BFF7A0544
:1002560079477D087F41120DB97BFF7A0579277DA5
:10026600097F41120DB97BFF7A0579577D0A7F41D7
:10027600120DB97BFF7A0579677D0B7F41120DB9A7
:100286007BFF7A0579777D0C7F41120DB97BFF7A6A
:100296000579377D0D7F41120DB97BFF7A0479F719
:1002A6007D0E7F41120DB97BFF7A0579077D0F7FA1
:1002B60041120DB97BFF7A0679477D107F41120DF9
:1002C600B97BFF7A0579A77D117F41120DB97BFFB6
:1002D6007A0679577D127F41120DB97BFF7A06792E
:1002E600277D137F41120DB97BFF7A0579977D141F
:1002F6007F41120DB97BFF7A0679377D157F411252
:100306000DB97BFF7A0579677D167F41120DB97BA2
:10031600FF7A0579377D177F41120DB97BFF7A0584
:1003260079B77D187F41120DB97BFF7A0579577D24
:10033600197F41120DB97BFF7A0579777D1A7F41C6
:10034600120DB97BFF7A0579877D1B7F41120DB9A6
:100356007BFF7A0579A77D1C7F41120DB97BFF7A59
:100366000579377D1D7F41120DB97BFF7A0579A787
:10037600E4FD7F51120DB97BFF7A0579977D017FE8
:1003860051120DB97BFF7A0579D77D037F51120D86
:10039600B97BFF7A0579977D047F51120DB97BFFF2
:1003A6007A0579677D057F51120DB97BFF7A05794C
:1003B600A77D067F51120DB97BFF7A0579B77D07B8
:1003C6007F51120DB97BFF7A0579977D087F51120F
:1003D6000DB97BFF7A0479F77D097F51120DB97B40
:1003E600FF7A0579D77D0B7F51120DB97BFF7A0510
:1003F60079477D0C7F51120DB97BFF7A0579B77D60
:100406000D7F51120DB97BFF7A0579277D0E7F513D
:10041600120DB97BFF7A0579977D0F7F51120DB9C1
:0D0426007BFF7A0579B77D107F51020DB97B
:040889008F108D112E
:10088D007514008F15751600851117E4F518F519F7
:10089D00F51AF51BEF75F01EA4AEF07C002DF513C7
:1008AD00EC3EF512E4F549F54AE4F518F519E4F5D1
:1008BD001AF51BE51075F01EA4AEF07C002511F5A0
:1008CD0013EC3EF5120511FEAF130C7D00120A75E7
:1008DD00AF05121483AE12AF137C017D00120A75A1
:1008ED001214837F241214A67FB01214A6E51925C5
:1008FD001B90066793FF1214837FB21214A6051B7B
:10090D00E51B7002051AC39401E51A940040A40575
:10091D00108517110519E51970020518C39410E516
:10092D001894004089851510000000E4F518F5199C
:10093D00E4F51AF51BE51075F01EA4AEF07C00254C
:10094D0011F513EC3EF5120511FEAF130C7D0012DF
:10095D000A75AF05121483AE12AF137C017D001220
:10096D000A751214837F241214A67FB01214A6E404
:10097D00FF1214837FB21214A6051BE51B7002052E
:10098D001AC39401E51A940040AB051085171105A3
:10099D0019E51970020518C39410E51894004090DC
:1009AD00851510000000E54A454970030208B6ADF3
:1009BD0017AC16AF15AE14120ABC854B14854C1529
:1009CD00854D16854E17851510851711E4F549F5DA
:0409DD004A0208B60C
:100ABC008E1C8F1D8C1E8D1FE54A45497003020B41
:100ACC007EB290E54A640245497020AF1DAD1F7B94
:100ADC0002120FB5AF1DAD1F7BFF7A067977120C92
:100AEC00FD74D8254CF54C74FF804DE54A640145E6
:100AFC00497020AF1DAD1F7B02120FB5AF1DAD1F8E
:100B0C007BFF7A067977120CFD74FE254EF54E7438
:100B1C00FF8053E54A640F45497023AF1DAD1F7B21
:100B2C0002120FB5AF1DAD1F7BFF7A067977120C41
:100B3C00FD7428254CF54CE4354BF54B802CE54ADF
:100B4C00648045496003020AC4AF1DAD1F7B0212CD
:100B5C000FB5AF1DAD1F7BFF7A067977120CFD74B4
:100B6C0002254EF54EE4354DF54DE4F549F54A02B6
:030B7C000AC42286
:10114800750800750964750A00750B1E750C007525
:101158000D02E4F50EF50FC3E50F950BE50E950AA4
:10116800501AAF0DAD0F7BFF7A067977120CFD741C
:1011780002250FF50FE4350EF50E80DBE4F50EF5CC
:101188000FF50C750D3EE50B24FCFFE50A34FFFE58
:10119800C3E50F9FE50E9E501AAF0DAD0F7BFF7A8A
:1011A800067977120CFD7402250FF50FE4350EF55C
:0D11B8000E80D312127CAF4CAD4E020889A0
:100E6B00750800750964750A00750B1E750C007505
:100E7B000D02E4F50EF50FC3E50F950BE50E950A84
:100E8B00501AAF0DAD0F7BFF7A067977120CFD74FC
:100E9B0002250FF50FE4350EF50E80DBE4F50EF5AC
:100EAB000FF50C750D2AE50B24FCFFE50A34FFFE4C
:100EBB00C3E50F9FE50E9E501AAF0DAD0F7BFF7A6A
:100ECB00067977120CFD7402250FF50FE4350EF53C
:100EDB000E80D3750E00750F04750C00750D52C383
:100EEB00E50F950BE50E950A501AAF0DAD0F7BFF75
:100EFB007A067977120CFD7402250FF50FE4350E87
:040F0B00F50E80DB84
:010F0F0022BF
:100F1000750800750964750A00750B1E750C00755F
:100F20000D02E4F50EF50FC3E50F950BE50E950ADE
:100F3000501AAF0DAD0F7BFF7A067977120CFD7456
:100F400002250FF50FE4350EF50E80DBE4F50EF506
:100F50000FF50C750D2AE50B24F6FFE50A34FFFEAC
:100F6000C3E50F9FE50E9E501AAF0DAD0F7BFF7AC4
:100F7000067977120CFD7402250FF50FE4350EF596
:100F80000E80D3750E00750F0A750C00750D52C3D7
:100F9000E50F950BE50E950A501AAF0DAD0F7BFFCF
:100FA0007A067977120CFD7402250FF50FE4350EE1
:040FB000F50E80DBDF
:010FB400221A
:1006B700E54A640245497003020888E54A64014532
:1006C700497003020888E54A640F45497003020828
:1006D700887BFF7A0579477D097F1C120DB97BFF5F
:1006E7007A0679177D0A7F1C120DB97BFF7A047988
:1006F700E77D0C7F1C120DB97BFF7A0579177D0DFD
:100707007F1C120DB97BFF7A0579277D0E7F1C129E
:100717000DB97BFF7A0579277D0F7F1C120DB97BF9
:10072700FF7A0579977D117F1C120DB97BFF7A053A
:1007370079677D127F1C120DB97BFF7A0579077DDA
:10074700137F1C120DB97BFF7A0479F77D097F2D82
:10075700120DB97BFF7A0579077D0A7F2D120DB936
:100767007BFF7A0679477D0B7F2D120DB97BFF7AC8
:100777000579A77D0C7F2D120DB97BFF7A0479E7E8
:100787007D0E7F2D120DB97BFF7A0579177D0F7FBF
:100797002D120DB97BFF7A0579277D107F2D120D5C
:1007A700B97BFF7A0579277D117F2D120DB97BFF64
:1007B7007A0579A77D137F2D120DB97BFF7A06790C
:1007C700377D147F2D120DB97BFF7A0579977D153B
:1007D7007F2D120DB97BFF7A0679277D097F3E129F
:1007E7000DB97BFF7A0579977D0A7F3E120DB97B9C
:1007F700FF7A0679377D0B7F3E120DB97BFF7A05AD
:1008070079677D0C7F3E120DB97BFF7A0479E77D0E
:100817000E7F3E120DB97BFF7A0579177D0F7F3E5C
:10082700120DB97BFF7A0579277D107F3E120DB92E
:100837007BFF7A0579277D117F3E120DB97BFF7A01
:100847000579A77D137F3E120DB97BFF7A0579875E
:100857007D147F3E120DB97BFF7A0579B77D157F31
:100867003E120DB97BFF7A0579077D167F3E120D83
:10087700B97BFF7A0579077D177F3E120DB902060E
:02088700B72296
:0914B9007BFF7A067997020CFD15
:10127C00E4FD7F111214B9E50075F00CA42400F8FC
:10128C00E4F608F6E50075F00CA42400F8E4F60882
:10129C00F6E50075F00CA42400F8E4F608F6E50079
:1012AC0075F00CA42400F87600087601E50075F0C2
:0E12BC000CA42400F8760008760375000122C9
:0114C2002207
:10000E00759850438920758DFD758BFDD28ED29CCF
:05001E00D2ACD2AF22BC
:03002300021410B4
:10141000C0D075D000C007309809AF997549008FCA
:081420004AC298D007D0D03277
:10145D00438901758C4C758AD0D2AFD2A9D28C221A
:03000B000213DB02
:1013DB00C0E0758C4C758AD00500E50070020500E5
:0D13EB00642845007004F500F500D0E032E4
:0300000002149A4D
:0C149A00787FE4F6D8FD75816102122114
:1009E100BB010CE58229F582E5833AF583E02250CB
:1009F10006E92582F8E622BBFE06E92582F8E22215
:0D0A0100E58229F582E5833AF583E493222E
:100A0E00EF8DF0A4A8F0CF8CF0A428CE8DF0A42EFC
:020A1E00FE22B6
:100A2000BC000BBE0029EF8DF084FFADF022E4CCBA
:100A3000F875F008EF2FFFEE33FEEC33FCEE9DEC83
:100A4000984005FCEE9DFE0FD5F0E9E4CEFD22EDC9
:100A5000F8F5F0EE8420D21CFEADF075F008EF2F13
:100A6000FFED33FD4007985006D5F0F222C398FD04
:050A70000FD5F0EA22A1
:100A7500C2D5EC30E709B2D5E4C39DFDE49CFCEE9C
:100A850030E715B2D5E4C39FFFE49EFE120A20C3EA
:100A9500E49DFDE49CFC8003120A2030D507C3E4E5
:060AA5009FFFE49EFE220B
:100AAB00F5F0C582A4C582C5F0C583A42583F58363
:010ABB002218
:00000001FF
